:100000000C9462000C948A000C948A000C948A0070
:100010000C948A000C948A000C948A000C948A0038
:100020000C948A000C948A000C948A000C948A0028
:100030000C948A000C948A000C948A000C948A0018
:100040000C94B6020C948A000C948A000C948A00DA
:100050000C948A000C948A000C948A000C948A00F8
:100060000C948A000C948A000000000024002700F1
:100070002A0000000000250028002B0000000000DE
:1000800023002600290004040404040404040202DA
:100090000202020203030303030301020408102007
:1000A0004080010204081020010204081020000012
:1000B0000007000201000003040600000000000029
:1000C0000000490211241FBECFEFD8E0DEBFCDBF34
:1000D00011E0A0E0B1E0E8E4F8E002C005900D9284
:1000E000A831B107D9F711E0A8E1B1E001C01D9234
:1000F000A433B107E1F710E0C4ECD0E004C02297CC
:10010000FE010E941E04C23CD107C9F70E94AF0243
:100110000C9422040C9400000F931F938C01FC019B
:10012000848160E00E94900381E090E00E942803B7
:10013000F801848161E00E94900381E090E00E94D8
:100140002803F801848160E00E94900384E690E037
:100150000E9428031F910F910895CF92DF92EF9292
:10016000FF920F931F93CF93DF93D82EC92E282F82
:10017000392FC9018C01C0E0D0E0E62EFF24F80140
:10018000858161E00E947003B7010C2E02C0759555
:1001900067950A94E2F76170F80185810E949003E7
:1001A00021960F5F1F4FC830D10549F78D2D9C2D2B
:1001B0000E948C00DF91CF911F910F91FF90EF90E3
:1001C000DF90CF900895CF92DF92EF92FF920F933E
:1001D0001F93CF93DF93D82EC92E282F392FC90113
:1001E0008C01C0E0D0E0E62EFF24F801858161E0BB
:1001F0000E947003B7010C2E02C0759567950A9492
:10020000E2F76170F80185810E94900321960F5FEB
:100210001F4FC430D10549F78D2D9C2D0E948C00B5
:10022000DF91CF911F910F91FF90EF90DF90CF90D2
:1002300008951F93CF93DF93EC01162F8A81642FCB
:100240000E9490038B8160E00E9490038D8584FF63
:1002500005C0CE01612F0E94AD000EC0612F70E07D
:1002600084E0759567958A95E1F7CE010E94E300D9
:10027000CE01612F0E94E300DF91CF911F9108957D
:1002800041E00E941901089540E00E94190108957B
:100290006CE10E944401089568E10E9444010895C0
:1002A000FC016685862F846086876C60CF010E9482
:1002B0004401089561E00E94440180ED97E00E94AE
:1002C00028030895CF93DF93EC01423018F08D8519
:1002D00088608D87498B1A8A222329F0413019F4CE
:1002E0008D8584608D8780E593EC0E9428038A8148
:1002F00060E00E9490038C8160E00E9490038B81FB
:1003000060E00E9490036D8564FD1DC0CE0163E036
:100310000E94E30084E991E10E942803CE0163E09A
:100320000E94E30084E991E10E942803CE0163E08A
:100330000E94E30086E990E00E942803CE0162E07B
:100340000E94E30016C06062CE010E94440184E96D
:1003500091E10E9428036D856062CE010E944401F4
:1003600086E990E00E9428036D856062CE010E94BC
:1003700044016D856062CE010E94440184E08E8755
:10038000CE010E945001CE010E945A0182E08F8767
:10039000CE0166E00E944401DF91CF9108956F92F3
:1003A0007F928F92AF92CF92EF920F931F93DF9332
:1003B000CF93CDB7DEB73C01162F842FF3014283D4
:1003C00023830483E582C682A78280869D859187E8
:1003D0009E8592879F8593879889948761E00E9484
:1003E0007003F301838161E00E947003F301848153
:1003F00061E00E947003112319F0F301158603C018
:1004000080E1F3018587C30160E141E020E00E94C3
:100410006201CF91DF911F910F91EF90CF90AF903C
:100420008F907F906F9008958F92AF92CF92EF92BE
:100430000F931F93CF93DF93DC01362F542F722F2E
:10044000102FAE2C8C2C82E191E011969C938E9310
:1004500000D000D0EDB7FEB73196CDB7DEB7198228
:10046000118212821382CD0161E0432F2FEF052FFD
:10047000E72EC12E0E94CF010F900F900F900F908A
:10048000DF91CF911F910F91EF90CF90AF908F9010
:100490000895CF92EF920F9388E191E06CE04BE0EA
:1004A00025E004E053E0E52E32E0C32E0E94140262
:1004B0000F91EF90CF900895CF93DF93C0E0D0E0FD
:1004C00088E191E00E944C0166E970E080E090E0F4
:1004D0000E94FE022196CD30D10591F7C0E0D0E018
:1004E00088E191E00E94480166E970E080E090E0D8
:1004F0000E94FE022196CD31D10591F7C0E0D0E0F7
:1005000088E191E00E944C0166E970E080E090E0B3
:100510000E94FE022196C031D10591F768EE73E08A
:1005200080E090E00E94FE02DF91CF9108950F934A
:100530001F9308E111E0C80160E142E020E00E9461
:100540006201C80160E071E00E94140468EE73E08B
:1005500080E090E00E94FE021F910F9108950E949A
:1005600036030E9497020E945C02FDCF1F920F92F9
:100570000FB60F9211242F933F938F939F93AF93B6
:10058000BF9380912F0190913001A0913101B091E2
:100590003201309133010196A11DB11D232F2D5F32
:1005A0002D3720F02D570196A11DB11D2093330149
:1005B00080932F0190933001A0933101B0933201C9
:1005C00080912B0190912C01A0912D01B0912E01D1
:1005D0000196A11DB11D80932B0190932C01A09336
:1005E0002D01B0932E01BF91AF919F918F913F91BB
:1005F0002F910F900FBE0F901F901895EF92FF92C2
:100600000F931F937B018C018FB7F89440912F01BA
:100610005091300160913101709132018FBF2FB73D
:10062000F89480912F0190913001A0913101B09107
:1006300032012FBF841B950BA60BB70BE816F906EA
:100640000A071B0760F71F910F91FF90EF90089525
:10065000019759F0FC01EE0FFF1FEE0FFF1F3297BD
:100660008FB7F8943197F1F78FBF0895789484B5D8
:10067000826084BD84B5816084BD85B5826085BD9E
:1006800085B5816085BDEEE6F0E080818160808384
:10069000E1E8F0E0808182608083808181608083F6
:1006A000E0E8F0E0808181608083E1EBF0E0808130
:1006B00084608083E0EBF0E0808181608083EAE702
:1006C000F0E080818460808380818260808380818B
:1006D000816080838081806880831092C10008954A
:1006E000282F30E0C90186569F4FFC0194912A576C
:1006F0003F4FF9018491882391F0E82FF0E0EE0F4D
:10070000FF1FE859FF4FA591B491662329F48C91FE
:10071000909589238C9308958C91892B8C930895BF
:10072000482F50E0CA0182559F4FFC012491CA0115
:1007300086569F4FFC0194914A575F4FFA013491BE
:100740003323D1F1222331F1233021F48091800031
:100750008F7705C0243031F4809180008F7D8093A5
:10076000800018C0213019F484B58F7704C022307E
:1007700021F484B58F7D84BD0DC0263021F4809195
:10078000B0008F7705C0273029F48091B0008F7DAD
:100790008093B000E32FF0E0EE0FFF1FEE58FF4F05
:1007A000A591B491662329F48C91909589238C931B
:1007B00008958C91892B8C9308950F931F93CF9359
:1007C000DF938C01EB0109C02196D801ED91FC91DA
:1007D0000190F081E02DC801099568816623A1F799
:1007E000DF91CF911F910F910895EF92FF920F9398
:1007F0001F93CF93DF938C017B01EA010CC0D701DB
:100800006D917D01D801ED91FC910190F081E02D79
:10081000C80109952197209791F7DF91CF911F91FA
:100820000F91FF90EF900895DC01ED91FC91028013
:10083000F381E02D09950895EE0FFF1F0590F491C7
:08084000E02D0994F894FFCFAC
:1008480068656C6C6F2C20776F726C6421000000F7
:0808580000004001DD03F5037F
:00000001FF
