:100000000C9462000C948A000C948A000C948A0070
:100010000C948A000C948A000C948A000C948A0038
:100020000C948A000C948A000C948A000C948A0028
:100030000C948A000C948A000C948A000C948A0018
:100040000C94D0020C948A000C948A000C948A00C0
:100050000C948A000C948A000C948A000C948A00F8
:100060000C948A000C948A000000000024002700F1
:100070002A0000000000250028002B0000000000DE
:1000800023002600290004040404040404040202DA
:100090000202020203030303030301020408102007
:1000A0004080010204081020010204081020000012
:1000B0000007000201000003040600000000000029
:1000C0000000700211241FBECFEFD8E0DEBFCDBF0D
:1000D00011E0A0E0B1E0E8E5FAE002C005900D9281
:1000E000A231B107D9F711E0A2E1B1E001C01D9240
:1000F000AE32B107E1F710E0C4ECD0E004C02297C3
:10010000FE010E942605C23CD107C9F70E94C90220
:100110000C942A050C9400000F931F938C01FC0192
:10012000848160E00E94AA0381E090E00E94420383
:10013000F801848161E00E94AA0381E090E00E94BE
:100140004203F801848160E00E94AA0384E690E003
:100150000E9442031F910F910895CF92DF92EF9278
:10016000FF920F931F93CF93DF93D82EC92E282F82
:10017000392FC9018C01C0E0D0E0E62EFF24F80140
:10018000858161E00E948A03B7010C2E02C075953B
:1001900067950A94E2F76170F80185810E94AA03CD
:1001A00021960F5F1F4FC830D10549F78D2D9C2D2B
:1001B0000E948C00DF91CF911F910F91FF90EF90E3
:1001C000DF90CF900895CF92DF92EF92FF920F933E
:1001D0001F93CF93DF93D82EC92E282F392FC90113
:1001E0008C01C0E0D0E0E62EFF24F801858161E0BB
:1001F0000E948A03B7010C2E02C0759567950A9478
:10020000E2F76170F80185810E94AA0321960F5FD1
:100210001F4FC430D10549F78D2D9C2D0E948C00B5
:10022000DF91CF911F910F91FF90EF90DF90CF90D2
:1002300008951F93CF93DF93EC01162F8A81642FCB
:100240000E94AA038B8160E00E94AA038D8584FF2F
:1002500005C0CE01612F0E94AD000EC0612F70E07D
:1002600084E0759567958A95E1F7CE010E94E300D9
:10027000CE01612F0E94E300DF91CF911F9108957D
:1002800041E00E941901089540E00E94190108957B
:10029000FC016685862F846086876C60CF010E9492
:1002A00044010895DF93CF93CDB7DEB728970FB6FB
:1002B000F894DEBF0FBECDBF9C01FE013196AAE0CF
:1002C000B1E088E00D9001928150E1F7F901818958
:1002D000841710F4482F4150E42FF0E0EE0FFF1F79
:1002E000EC0FFD1F8181680F6068C9010E94440105
:1002F00028960FB6F894DEBF0FBECDBFCF91DF9129
:10030000089561E00E94440180ED97E00E9442035D
:100310000895CF93DF93EC01423018F08D8588600B
:100320008D87498B1A8A222329F0413019F48D8553
:1003300084608D8780E593EC0E9442038A8160E0AF
:100340000E94AA038C8160E00E94AA038B8160E076
:100350000E94AA036D8564FD1DC0CE0163E00E946A
:10036000E30084E991E10E944203CE0163E00E9430
:10037000E30084E991E10E944203CE0163E00E9420
:10038000E30086E990E00E944203CE0162E00E9411
:10039000E30016C06062CE010E94440184E991E14D
:1003A0000E9442036D856062CE010E94440186E98D
:1003B00090E00E9442036D856062CE010E9444017C
:1003C0006D856062CE010E94440184E08E87CE017B
:1003D0000E944801CE010E94810182E08F87CE01F8
:1003E00066E00E944401DF91CF9108956F927F9261
:1003F0008F92AF92CF92EF920F931F93DF93CF9391
:10040000CDB7DEB73C01162F842FF301428323833F
:100410000483E582C682A78280869D8591879E851A
:1004200092879F8593879889948761E00E948A03C9
:10043000F301838161E00E948A03F301848161E01A
:100440000E948A03112319F0F301158603C080E18D
:10045000F3018587C30160E141E020E00E9489014A
:10046000CF91DF911F910F91EF90CF90AF908F9030
:100470007F906F9008958F92AF92CF92EF920F93EB
:100480001F93CF93DF93DC01362F542F722F102F41
:10049000AE2C8C2C84E091E011969C938E9300D02E
:1004A00000D0EDB7FEB73196CDB7DEB71982118215
:1004B00012821382CD0161E0432F2FEF052FE72E2B
:1004C000C12E0E94F6010F900F900F900F90DF91B8
:1004D000CF911F910F91EF90CF90AF908F90089593
:1004E000CF92EF920F9382E191E06CE04BE025E038
:1004F00004E053E0E52E32E0C32E0E943B020F9150
:10050000EF90CF900895CF92DF92EF92FF920F93EA
:100510001F9361E6E62EF12C012D112D29C082E1F9
:1005200091E06D2D4C2D0E94520182E191E0B801C5
:10053000A70120E030E00E94ED0464E670E080E076
:1005400090E00E941803D39484E1D81641F7C39435
:1005500084E0C81611F0DD24E2CF0894E11CF11C00
:10056000011D111D8BE7E816F1040105110511F0BD
:10057000CC24F1CF1F910F91FF90EF90DF90CF909F
:10058000089582E191E064E044E120E00E94890165
:1005900008950E9450030E94C1020E948302FDCF71
:1005A0001F920F920FB60F9211242F933F938F93A8
:1005B0009F93AF93BF938091290190912A01A091BD
:1005C0002B01B0912C0130912D010196A11DB11D7F
:1005D000232F2D5F2D3720F02D570196A11DB11D22
:1005E00020932D018093290190932A01A0932B0140
:1005F000B0932C018091250190912601A0912701B3
:10060000B09128010196A11DB11D80932501909301
:100610002601A0932701B0932801BF91AF919F912C
:100620008F913F912F910F900FBE0F901F901895B3
:10063000EF92FF920F931F937B018C018FB7F89479
:100640004091290150912A0160912B0170912C0158
:100650008FBF2FB7F8948091290190912A01A09122
:100660002B01B0912C012FBF841B950BA60BB70B50
:10067000E816F9060A071B0760F71F910F91FF9014
:10068000EF900895019759F0FC01EE0FFF1FEE0F58
:10069000FF1F32978FB7F8943197F1F78FBF089506
:1006A000789484B5826084BD84B5816084BD85B54D
:1006B000826085BD85B5816085BDEEE6F0E0808114
:1006C00081608083E1E8F0E08081826080838081C6
:1006D00081608083E0E8F0E0808181608083E1EBED
:1006E000F0E0808184608083E0EBF0E080818160D5
:1006F0008083EAE7F0E0808184608083808182608B
:100700008083808181608083808180688083109273
:10071000C1000895282F30E0C90186569F4FFC0183
:1007200094912A573F4FF9018491882391F0E82F43
:10073000F0E0EE0FFF1FE859FF4FA591B49166233B
:1007400029F48C91909589238C9308958C91892B11
:100750008C930895482F50E0CA0182559F4FFC01A9
:100760002491CA0186569F4FFC0194914A575F4FCE
:10077000FA0134913323D1F1222331F1233021F4D2
:10078000809180008F7705C0243031F48091800003
:100790008F7D8093800018C0213019F484B58F7745
:1007A00004C0223021F484B58F7D84BD0DC0263075
:1007B00021F48091B0008F7705C0273029F4809113
:1007C000B0008F7D8093B000E32FF0E0EE0FFF1FAD
:1007D000EE58FF4FA591B491662329F48C91909522
:1007E00089238C9308958C91892B8C9308950F9372
:1007F0001F93CF93DF938C01EB0109C02196D801A1
:10080000ED91FC910190F081E02DC801099568817E
:100810006623A1F7DF91CF911F910F910895EF9279
:10082000FF920F931F93CF93DF938C017B01EA011B
:100830000CC0D7016D917D01D801ED91FC91019023
:10084000F081E02DC80109952197209791F7DF915C
:10085000CF911F910F91FF90EF9008952F923F92AB
:100860004F925F926F927F928F929F92AF92BF92C0
:10087000CF92DF92EF92FF920F931F93DF93CF936C
:10088000CDB7DEB7A0970FB6F894DEBF0FBECDBFD1
:100890001C016A017B01411551056105710549F48F
:1008A000DC01ED91FC910190F081E02D60E3099570
:1008B00054C0882499245401422E55246624772458
:1008C00001E010E00C0F1D1F080D191DC701B60136
:1008D000A30192010E940205F80160830894811C23
:1008E000911CA11CB11CC701B601A30192010E9479
:1008F0000205C901DA016C017D01C114D104E104D2
:10090000F104F1F681E0E82EF12CEC0EFD1EE80C6E
:10091000F91C3E010894611C711CD501C4010197AA
:10092000A109B1096C01C818D90814C0F601EE0D6F
:10093000FF1D60816A3010F4605D01C0695CD10107
:10094000ED91FC910190F081E02DC1010995089491
:10095000E108F1086E147F0449F7A0960FB6F894E9
:10096000DEBF0FBECDBFCF91DF911F910F91FF90E2
:10097000EF90DF90CF90BF90AF909F908F907F903F
:100980006F905F904F903F902F900895EF92FF925D
:100990000F931F93CF93DF93EC017A018B0177FFC5
:1009A0000FC0E881F9810190F081E02D6DE2099599
:1009B00010950095F094E094E11CF11C011D111DAF
:1009C000CE01B801A7012AE00E942E04DF91CF9149
:1009D0001F910F91FF90EF900895DC0121153105D3
:1009E00041F4ED91FC910190F081E02D642F099587
:1009F00008952A30310519F40E94C60408950E9412
:100A00002E040895A1E21A2EAA1BBB1BFD010DC0E6
:100A1000AA1FBB1FEE1FFF1FA217B307E407F507AE
:100A200020F0A21BB30BE40BF50B661F771F881F8A
:100A3000991F1A9469F760957095809590959B0120
:100A4000AC01BD01CF010895EE0FFF1F0590F49199
:080A5000E02D0994F894FFCF9A
:100A5800000000004001F7030F04000040001400EC
:020A6800540038
:00000001FF
