:100000000C9463000C948B000C948B000C948B006C
:100010000C948B000C948B000C948B000C948B0034
:100020000C948B000C948B000C948B000C948B0024
:100030000C948B000C948B000C948B000C948B0014
:100040000C949E030C948B000C9458040C948B001D
:100050000C948B000C948B000C948B000C948B00F4
:100060000C948B000C948B000000000024002700EF
:100070002A0000000000250028002B0000000000DE
:1000800023002600290004040404040404040202DA
:100090000202020203030303030301020408102007
:1000A0004080010204081020010204081020000012
:1000B0000007000201000003040600000000000029
:1000C0000000A102A10511241FBECFEFD8E0DEBFC2
:1000D000CDBF11E0A0E0B1E0E0E2FFE002C005909A
:1000E0000D92A836B107D9F712E0A8E6B1E001C039
:1000F0001D92A631B107E1F710E0C6ECD0E004C0D4
:100100002297FE010E948A07C23CD107C9F70E94CC
:1001100097030C948E070C940000DC01862F90E06E
:10012000FC01E656FF4FE491EC938A579F4FFC0188
:100130006491E62FF0E0EE0FFF1FE458FF4F85912A
:10014000949112969C938E9311971B961C921B97D9
:100150001D961C921D971C961C921C97FD0187E012
:1001600090E012863197009711F00197FACF089529
:10017000FC0113861586148687E090E0128631977D
:10018000009711F00197FACF0895FC0130E04CE898
:100190000DC0208198E0822F8327369580FD34277B
:1001A000915011F02695F7CF31966150662389F76B
:1001B000832F0895DF92EF92FF920F931F93FC011C
:1001C000E08001811281F894F80181818E29818378
:1001D0008281DE2CD0948D21828383E090E00E9486
:1001E0001004F80181818D21818389E090E00E94D3
:1001F0001004F8010081789485E390E00E941004D7
:1002000080E010E0FF240E211F21012B09F081E086
:100210001F910F91FF90EF90DF900895EF92FF9262
:100220000F931F93CF93DF937C0101E010E0C0E0B8
:10023000D0E0C7010E94DA008111102B000F219637
:10024000C830D105B1F7812FDF91CF911F910F9168
:10025000FF90EF9008951F93CF93DF93FC011081DF
:10026000C181D281912F909560FF12C0F8948A814C
:1002700089238A838981812B89838AE090E00E9487
:1002800010048A81812B8A83789487E390E011C0DF
:10029000F8948A8189238A838981812B898381E4E7
:1002A00090E00E9410048A81812B8A83789485E0F3
:1002B00090E00E941004DF91CF911F910895CF929A
:1002C000DF92EF92FF920F931F93CF93DF938C01F6
:1002D000E42EFF24F394C0E0D0E0C62EDD2460E0DD
:1002E0008F2D90E08C219D21892B09F061E0C801C0
:1002F0000E942B01FF0C2196C830D10581F7EE201A
:10030000A9F4F894D8011196ED91FC91129791817E
:100310008C918095982391831196ED91FC91129781
:1003200092818C918095982392837894DF91CF91DC
:100330001F910F91FF90EF90DF90CF900895EF9273
:10034000FF920F931F93CF93DF938C017B0165E5A1
:1003500040E00E945F01C0E0D0E0F701EC0FFD1F1C
:10036000C801608140E00E945F012196C830D1053C
:10037000A1F7DF91CF911F910F91FF90EF9008951A
:10038000DF92EF92FF920F931F93CF93DF93FC01C5
:100390000081C181D281F8948981D02ED0948D21A1
:1003A000898378941DE7E02EFF24115059F182E0F3
:1003B00090E00E941004888190E08E219F21892B7B
:1003C000A1F3F8948A818D218A838981802B898386
:1003D000789484EF91E00E941004F89489818D2133
:1003E000898380E590E00E941004888110E090E00D
:1003F000E822F922EF2809F411E0789484EA91E0E8
:100400000E941004812FDF91CF911F910F91FF90D7
:10041000EF90DF900895AF92BF92DF92EF92FF923C
:100420000F931F93CF93DF93EC015B018D8588239E
:1004300009F061C0CE010E94C001882329F41B8607
:100440001D861C8690E06BC0CE0160EF40E00E94EC
:100450005F0101E0DD24EE24FF24F394CE010E942D
:10046000DA00182FCE010E94DA00113019F4813021
:10047000E1F439C0181709F58B85081770F460E0AE
:10048000FE01EE0DF11D838190E02F2D30E08223DF
:100490009323181619064CF003C060E0081729F0E2
:1004A000093008F04CC00C874AC0FE01EE0DF11D6A
:1004B00083818F29838361E009C0612FFE01EE0DE6
:1004C000F11D9F2D9095838189238383CE010E9406
:1004D0002B010F5FFF0C19F4E394FF24F39487E0E2
:1004E0008E1508F0BBCF013430F0DB86DD2011F52E
:1004F00081E08D871FC01B861D861C8690E0DE0173
:1005000020E030E0F501E20FF31F13968C91139772
:1005100080832F5F3F4F11962830310599F7892F3F
:10052000DF91CF911F910F91FF90EF90DF90BF90DF
:10053000AF9008958B818823F1F291E0E0CFD02E27
:10054000BDCF88E691E069E00E948D000895CF92CA
:10055000DF92EF92FF920F931F93DF93CF93CDB76C
:10056000DEB764970FB6F894DEBF0FBECDBF88E646
:1005700091E08E010F5F1F4FB8010E940B0288238C
:1005800089F483E092E060E071E00E94120688E660
:1005900091E00E94B80062EE74E080E090E00E947A
:1005A000E603ADC083E092E064E171E00E941206D0
:1005B00068018E01075F1F4FF60141916F0150E006
:1005C00060E070E083E092E020E130E00E94F0061D
:1005D00083E092E067E171E00E941206C016D10646
:1005E00059F78E010F5F1F4FC80167E00E94C500D9
:1005F0009885891729F083E092E069E171E007C0EE
:100600008981883239F083E092E06CE271E00E94E7
:10061000120675C088E691E00E94C00188E691E06C
:10062000B8010E949F0188E691E064E441E00E94E5
:100630005F0168EE73E080E090E00E94E60388E6E8
:1006400091E00E94C001E82E88E691E0B8010E9486
:100650009F0188E691E06EEB40E00E945F0183E03D
:1006600092E064E571E00E941206FF2400E010E0D1
:1006700083E092E0B801A70120E130E00E94F0069B
:1006800083E092E067E171E00E9412068601760144
:1006900082E1C82ED12CCC0EDD1E88E691E00E94AE
:1006A0000E01482FF80181938F0150E060E070E067
:1006B00083E092E020E130E00E94F00683E092E0E7
:1006C00067E171E00E9412060C151D0531F783E009
:1006D00092E067E571E00E941206C70168E00E949F
:1006E000C500482F50E060E070E083E092E020E138
:1006F00030E00E94F00683E092E00E941A066496C1
:100700000FB6F894DEBF0FBECDBFCF91DF911F9122
:100710000F91FF90EF90DF90CF90089583E092E0EB
:1007200040E855E260E070E00E94950408950E9460
:100730001E040E948E030E94A702FDCF1F920F92FB
:100740000FB60F9211242F933F938F939F93AF93E4
:10075000BF9380917A0190917B01A0917C01B0912F
:100760007D0130917E010196A11DB11D232F2D5FCA
:100770002D3720F02D570196A11DB11D20937E012C
:1007800080937A0190937B01A0937C01B0937D01CB
:100790008091760190917701A0917801B0917901D3
:1007A0000196A11DB11D8093760190937701A093CE
:1007B0007801B0937901BF91AF919F918F913F9153
:1007C0002F910F900FBE0F901F901895EF92FF92F0
:1007D0000F931F937B018C018FB7F89440917A019E
:1007E00050917B0160917C0170917D018FBF2FB78B
:1007F000F89480917A0190917B01A0917C01B09155
:100800007D012FBF841B950BA60BB70BE816F906CD
:100810000A071B0760F71F910F91FF90EF90089553
:10082000019759F0FC01EE0FFF1FEE0FFF1F3297EB
:100830008FB7F8943197F1F78FBF0895789484B506
:10084000826084BD84B5816084BD85B5826085BDCC
:1008500085B5816085BDEEE6F0E0808181608083B2
:10086000E1E8F0E080818260808380818160808324
:10087000E0E8F0E0808181608083E1EBF0E080815E
:1008800084608083E0EBF0E0808181608083EAE730
:10089000F0E08081846080838081826080838081B9
:1008A000816080838081806880831092C100089578
:1008B0001F920F920FB60F9211242F933F934F93D5
:1008C0005F936F937F938F939F93AF93BF93EF93B8
:1008D000FF934091C600E091FF01F0910002CF012B
:1008E000019660E870E00E9424079C01809101025B
:1008F000909102022817390739F0E158FE4F4083E2
:10090000309300022093FF01FF91EF91BF91AF91CF
:100910009F918F917F916F915F914F913F912F9117
:100920000F900FBE0F901F9018955F926F927F925D
:100930008F929F92AF92BF92CF92DF92EF92FF92EF
:100940000F931F93CF93DF93EC013A014B01413496
:1009500082E458078FE0680780E078070CF07FC0DA
:1009600060E874E88EE190E0A40193010E945907C9
:100970002150304040405040CA01B90122E030E0EF
:1009800040E050E00E94590759016A01A601950113
:10099000209530954095509594E0220F331F441FC9
:1009A000551F9A95D1F760E074E284EF90E00E94C1
:1009B0005907CA01B9012FEF30E040E050E00E9432
:1009C0000507A40193010E945907C90181509F4F57
:1009D000181619061CF4522E5A9403C05524539429
:1009E000521A60E079E08DE390E0A40193010E9447
:1009F00059072150304040405040CA01B90122E01F
:100A000030E040E050E00E94590720953095409535
:100A1000509583E0220F331F441F551F8A95D1F74D
:100A200060E074E284EF90E00E945907CA01B901C6
:100A30002FEF30E040E050E00E940507A401930151
:100A40000E945907C90181509F4F181619061CF4BE
:100A5000822F815002C081E0821B851500F5E88558
:100A6000F98581E090E00A8802C0880F991F0A94F6
:100A7000E2F7808360E079E08DE390E0A4019301E8
:100A80000E9459072150304040405040CA01B901EE
:100A900022E030E040E050E00E94590704C0E885C1
:100AA000F98510829501EC81FD813083EE81FF8113
:100AB0002083EA85FB85208141E050E0CA010E8455
:100AC00002C0880F991F0A94E2F7282B2083EA8539
:100AD000FB852081CA010F8402C0880F991F0A94E8
:100AE000E2F7282B2083EA85FB858081088802C0F5
:100AF000440F551F0A94E2F7842B8083DF91CF9136
:100B00001F910F91FF90EF90DF90CF90BF90AF902B
:100B10009F908F907F906F905F900895FC01A085CB
:100B2000B18521898C9190E0022E02C09595879520
:100B30000A94E2F780FFF6CF0484F585E02D608308
:100B4000089581E691E090930402809303028FE779
:100B500091E0909306028093050285EC90E09093DB
:100B600008028093070284EC90E090930A0280933D
:100B7000090280EC90E090930C0280930B0281ECD0
:100B800090E090930E0280930D0286EC90E090939B
:100B9000100280930F0284E08093110283E080931F
:100BA000120287E08093130285E08093140281E0B3
:100BB0008093150208950F931F93CF93DF938C01B9
:100BC000EB0109C02196D801ED91FC910190F081D3
:100BD000E02DC801099568816623A1F7DF91CF91C7
:100BE0001F910F910895EF92FF920F931F93CF9350
:100BF000DF938C017B01EA010CC0D7016D917D016F
:100C0000D801ED91FC910190F081E02DC80109958A
:100C10002197209791F7DF91CF911F910F91FF902E
:100C2000EF900895DC01ED91FC910280F381E02DBD
:100C3000099508950F931F938C01DC01ED91FC91B0
:100C40000190F081E02D6DE00995D801ED91FC91C6
:100C50000190F081E02DC8016AE009951F910F9184
:100C600008952F923F924F925F926F927F928F9250
:100C70009F92AF92BF92CF92DF92EF92FF920F932B
:100C80001F93DF93CF93CDB7DEB7A0970FB6F8943D
:100C9000DEBF0FBECDBF1C016A017B0141155105AE
:100CA0006105710549F4DC01ED91FC910190F08141
:100CB000E02D60E3099554C0882499245401422E04
:100CC00055246624772401E010E00C0F1D1F080D49
:100CD000191DC701B601A30192010E943707F8014F
:100CE00060830894811C911CA11CB11CC701B60132
:100CF000A30192010E943707C901DA016C017D014D
:100D0000C114D104E104F104F1F681E0E82EF12CE4
:100D1000EC0EFD1EE80CF91C3E010894611C711CD0
:100D2000D501C4010197A109B1096C01C818D908FE
:100D300014C0F601EE0DFF1D60816A3010F4605D95
:100D400001C0695CD101ED91FC910190F081E02D31
:100D5000C10109950894E108F1086E147F0449F770
:100D6000A0960FB6F894DEBF0FBECDBFCF91DF9136
:100D70001F910F91FF90EF90DF90CF90BF90AF90B9
:100D80009F908F907F906F905F904F903F902F90AB
:100D90000895EF92FF920F931F93CF93DF93EC018F
:100DA0007A018B0177FF0FC0E881F9810190F08112
:100DB000E02D6DE2099510950095F094E094E11C0A
:100DC000F11C011D111DCE01B801A7012AE00E94EE
:100DD0003106DF91CF911F910F91FF90EF90089511
:100DE000DC012115310541F4ED91FC910190F08178
:100DF000E02D642F099508952A30310519F40E94D9
:100E0000C90608950E9431060895629FD001739F1C
:100E1000F001829FE00DF11D649FE00DF11D929F96
:100E2000F00D839FF00D749FF00D659FF00D9927D5
:100E3000729FB00DE11DF91F639FB00DE11DF91FF9
:100E4000BD01CF011124089597FB092E07260AD072
:100E500077FD04D049D006D000201AF47095619532
:100E60007F4F0895F6F7909581959F4F0895A1E2E1
:100E70001A2EAA1BBB1BFD010DC0AA1FBB1FEE1F14
:100E8000FF1FA217B307E407F50720F0A21BB30B5F
:100E9000E40BF50B661F771F881F991F1A9469F7DB
:100EA00060957095809590959B01AC01BD01CF0137
:100EB000089597FB092E05260ED057FD04D0D7DFE5
:100EC0000AD0001C38F450954095309521953F4F3D
:100ED0004F4F5F4F0895F6F7909580957095619507
:100EE0007F4F8F4F9F4F0895AA1BBB1B51E107C037
:100EF000AA1FBB1FA617B70710F0A61BB70B881FAA
:100F0000991F5A95A9F780959095BC01CD01089538
:100F1000EE0FFF1F0590F491E02D0994F894FFCF98
:100F20004E6F206D6F7265206164647265737365C6
:100F3000732E0A00523D0020004352432069732063
:100F40006E6F742076616C6964210A00446576696D
:100F50006365206973206E6F7420612044533138BB
:100F60004232302066616D696C7920646576696310
:100F7000652E0A00503D00204352433D0000000012
:080F8000008E05DB05F30500FE
:00000001FF
