:100000000C9462000C948A000C948A000C948A0070
:100010000C948A000C948A000C948A000C948A0038
:100020000C948A000C948A000C948A000C948A0028
:100030000C948A000C948A000C948A000C948A0018
:100040000C94BF070C948A000C948A000C948A00CC
:100050000C948A000C948A000C948A000C948A00F8
:100060000C948A000C948A000000000024002700F1
:100070002A0000000000250028002B0000000000DE
:1000800023002600290004040404040404040202DA
:100090000202020203030303030301020408102007
:1000A0004080010204081020010204081020000012
:1000B0000007000201000003040600000000000029
:1000C0000000430711241FBECFEFD8E0DEBFCDBF35
:1000D00011E0A0E0B1E0EAE1FAE102C005900D9282
:1000E000AE32B107D9F711E0AEE2B1E001C01D9226
:1000F000AA36B107E1F710E0C4ECD0E004C02297C3
:10010000FE010E94070DC23CD107C9F70E94B80743
:100110000C940B0D0C9400000F931F938C01FC01A9
:10012000848160E00E94F20881E090E00E94310842
:10013000F801848161E00E94F20881E090E00E9471
:100140003108F801848160E00E94F20884E690E0C2
:100150000E9431081F910F910895CF92DF92EF9284
:10016000FF920F931F93CF93DF93D82EC92E282F82
:10017000392FC9018C01C0E0D0E0E62EFF24F80140
:10018000858161E00E94D208B7010C2E02C07595EE
:1001900067950A94E2F76170F80185810E94F20880
:1001A00021960F5F1F4FC830D10549F78D2D9C2D2B
:1001B0000E948C00DF91CF911F910F91FF90EF90E3
:1001C000DF90CF900895CF92DF92EF92FF920F933E
:1001D0001F93CF93DF93D82EC92E282F392FC90113
:1001E0008C01C0E0D0E0E62EFF24F801858161E0BB
:1001F0000E94D208B7010C2E02C0759567950A942B
:10020000E2F76170F80185810E94F20821960F5F84
:100210001F4FC430D10549F78D2D9C2D0E948C00B5
:10022000DF91CF911F910F91FF90EF90DF90CF90D2
:1002300008951F93CF93DF93EC01162F8A81642FCB
:100240000E94F2088B8160E00E94F2088D8584FF95
:1002500005C0CE01612F0E94AD000EC0612F70E07D
:1002600084E0759567958A95E1F7CE010E94E300D9
:10027000CE01612F0E94E300DF91CF911F9108957D
:1002800041E00E941901089540E00E94190108957B
:10029000FC016685862F846086876C60CF010E9492
:1002A00044010895DF93CF93CDB7DEB728970FB6FB
:1002B000F894DEBF0FBECDBF9C01FE013196A6E2D1
:1002C000B1E088E00D9001928150E1F7F901818958
:1002D000841710F4482F4150E42FF0E0EE0FFF1F79
:1002E000EC0FFD1F8181680F6068C9010E94440105
:1002F00028960FB6F894DEBF0FBECDBFCF91DF9129
:10030000089561E00E94440180ED97E00E94310869
:100310000895CF93DF93EC01423018F08D8588600B
:100320008D87498B1A8A222329F0413019F48D8553
:1003300084608D8780E593EC0E9431088A8160E0BB
:100340000E94F2088C8160E00E94F2088B8160E0DC
:100350000E94F2086D8564FD1DC0CE0163E00E941D
:10036000E30084E991E10E943108CE0163E00E943C
:10037000E30084E991E10E943108CE0163E00E942C
:10038000E30086E990E00E943108CE0162E00E941D
:10039000E30016C06062CE010E94440184E991E14D
:1003A0000E9431086D856062CE010E94440186E999
:1003B00090E00E9431086D856062CE010E94440188
:1003C0006D856062CE010E94440184E08E87CE017B
:1003D0000E944801CE010E94810182E08F87CE01F8
:1003E00066E00E944401DF91CF9108956F927F9261
:1003F0008F92AF92CF92EF920F931F93DF93CF9391
:10040000CDB7DEB73C01162F842FF301428323833F
:100410000483E582C682A78280869D8591879E851A
:1004200092879F8593879889948761E00E94D2087C
:10043000F301838161E00E94D208F301848161E0CD
:100440000E94D208112319F0F301158603C080E140
:10045000F3018587C30160E141E020E00E9489014A
:10046000CF91DF911F910F91EF90CF90AF908F9030
:100470007F906F9008958F92AF92CF92EF920F93EB
:100480001F93CF93DF93DC01362F542F722F102F41
:10049000AE2C8C2C80E291E011969C938E9300D030
:1004A00000D0EDB7FEB73196CDB7DEB71982118215
:1004B00012821382CD0161E0432F2FEF052FE72E2B
:1004C000C12E0E94F6010F900F900F900F90DF91B8
:1004D000CF911F910F91EF90CF90AF908F90089593
:1004E000DC01862F90E0FC01E656FF4FE491EC938F
:1004F0008A579F4FFC016491E62FF0E0EE0FFF1F3B
:10050000E458FF4F8591949112969C938E93119786
:100510001B961C921B971D961C921D971C961C9255
:100520001C97FD0187E090E012863197009711F04B
:100530000197FACF0895FC0113861586148687E08B
:1005400090E012863197009711F00197FACF089545
:10055000FC0130E04CE80DC0208198E0822F832719
:10056000369580FD3427915011F02695F7CF3196BE
:100570006150662389F7832F0895DF92EF92FF92EF
:100580000F931F93FC01E08001811281F894F80120
:1005900081818E2981838281DE2CD0948D2182837A
:1005A00083E090E00E943108F80181818D218183F0
:1005B00089E090E00E943108F8010081789485E399
:1005C00090E00E94310880E010E0FF240E211F21FE
:1005D000012B09F081E01F910F91FF90EF90DF90C8
:1005E0000895EF92FF920F931F93CF93DF937C01B7
:1005F00001E010E0C0E0D0E0C7010E94BD0281111F
:10060000102B000F2196C830D105B1F7812FDF9153
:10061000CF911F910F91FF90EF9008951F93CF936B
:10062000DF93FC011081C181D281912F909560FFF1
:1006300012C0F8948A8189238A838981812B8983D6
:100640008AE090E00E9431088A81812B8A83789425
:1006500087E390E011C0F8948A8189238A83898195
:10066000812B898381E490E00E9431088A81812B6B
:100670008A83789485E090E00E943108DF91CF91E1
:100680001F910895CF92DF92EF92FF920F931F93E5
:10069000CF93DF938C01E42EFF24F394C0E0D0E0ED
:1006A000C62EDD2460E08F2D90E08C219D21892BCA
:1006B00009F061E0C8010E940E03FF0C2196C830CA
:1006C000D10581F7EE20A9F4F894D8011196ED91A7
:1006D000FC91129791818C9180959823918311962A
:1006E000ED91FC91129792818C9180959823928341
:1006F0007894DF91CF911F910F91FF90EF90DF9051
:10070000CF9008956CEC40E00E9442030895EF9270
:10071000FF920F931F93CF93DF938C017B0165E5CD
:1007200040E00E944203C0E0D0E0F701EC0FFD1F63
:10073000C801608140E00E9442032196C830D10583
:10074000A1F7DF91CF911F910F91FF90EF90089546
:10075000DF92EF92FF920F931F93CF93DF93FC01F1
:100760000081C181D281F8948981D02ED0948D21CD
:10077000898378941DE7E02EFF24115059F182E01F
:1007800090E00E943108888190E08E219F21892B82
:10079000A1F3F8948A818D218A838981802B8983B2
:1007A000789484EF91E00E943108F89489818D213A
:1007B000898380E590E00E943108888110E090E014
:1007C000E822F922EF2809F411E0789484EA91E014
:1007D0000E943108812FDF91CF911F910F91FF90DF
:1007E000EF90DF900895AF92BF92DF92EF92FF9269
:1007F0000F931F93CF93DF93EC015B018D858823CB
:1008000009F061C0CE010E94A803882329F41B8649
:100810001D861C8690E06BC0CE0160EF40E00E9418
:10082000420301E0DD24EE24FF24F394CE010E9474
:10083000BD02182FCE010E94BD02113019F4813083
:10084000E1F439C0181709F58B85081770F460E0DA
:10085000FE01EE0DF11D838190E02F2D30E082230B
:100860009323181619064CF003C060E0081729F00E
:10087000093008F04CC00C874AC0FE01EE0DF11D96
:1008800083818F29838361E009C0612FFE01EE0D12
:10089000F11D9F2D9095838189238383CE010E9432
:1008A0000E030F5FFF0C19F4E394FF24F39487E029
:1008B0008E1508F0BBCF013430F0DB86DD2011F55A
:1008C00081E08D871FC01B861D861C8690E0DE019F
:1008D00020E030E0F501E20FF31F13968C9113979F
:1008E00080832F5F3F4F11962830310599F7892F6C
:1008F000DF91CF911F910F91FF90EF90DF90BF900C
:10090000AF9008958B818823F1F291E0E0CFD02E53
:10091000BDCFFC018EE495E0918B808B7583648361
:10092000138210828FE190E09283818308956F9209
:100930007F928F929F92AF92BF92CF92DF92EF926F
:10094000FF920F931F93CF93DF93FB01EA019981ED
:1009500080E0288130E0282B392BE081E23231F031
:10096000E83221F0E03109F084C04BC04C814F33B4
:1009700029F1403420F44F3109F07BC02FC04F35AE
:1009800079F04F3709F075C0B901882777FD809558
:10099000982F0E94D00B20E030E040E85DE32EC0AD
:1009A00035952795B901882777FD8095982F0E9466
:1009B000D00B20E030E040E05EE320C03595279585
:1009C00035952795B901882777FD8095982F0E9446
:1009D000D00B20E030E040E85EE310C093E03595B6
:1009E00027959A95E1F7B901882777FD8095982F8B
:1009F0000E94D00B20E030E040E05FE30E94800CDA
:100A000032C0EF8035952795B901882777FD80950D
:100A1000982F0E94D00B20E030E040E85EE30E9477
:100A2000CC0A3B014C016E2D70E02E81621B7109D6
:100A3000882777FD8095982F0E94D00B5B016C0171
:100A4000FF2400E010E0C801B7010E94CE0B9B011B
:100A5000AC01C601B5010E94350B9B01AC01C4017C
:100A6000B3010E94CD0A9B01AC01832F942F752FF7
:100A700000C0262F382F492F572FB901CA01DF9107
:100A8000CF911F910F91FF90EF90DF90CF90BF908B
:100A9000AF909F908F907F906F90089508950F93DF
:100AA0001F938C01FC01848195810E94A803F801A9
:100AB000848195810E948203F8018481958164E498
:100AC00040810E944203F801818192818F33910518
:100AD00051F08F35910561F04F9779F46EE570E034
:100AE00080E090E00EC06CEB70E080E090E009C028
:100AF00067E771E080E090E004C06EEE72E080E0B5
:100B000090E00E9407081F910F910895EF92FF92C5
:100B10000F931F938C017B01FC01848195810E94BE
:100B2000A803F80184819581B7010E948703F80129
:100B30008481958164EB40E00E944203F801848146
:100B400095810E94BD02F82EF801848195810E9452
:100B5000A80380E0FF2009F481E01F910F91FF902E
:100B6000EF900895CF92DF92EF92FF920F931F9331
:100B70008C016B017A01FC01848195810E94A8039C
:100B8000F80184819581B6010E948703F801848170
:100B900095816EEB40E00E944203F80184819581CB
:100BA0000E94F102F7018083F801848195810E94FF
:100BB000F102F7018183F801848195810E94F1029D
:100BC000F7018283F801848195810E94F102F70187
:100BD0008383F801848195810E94F102F701848367
:100BE000F801848195810E94F102F7018583F80163
:100BF000848195810E94F102F7018683F801848146
:100C000095810E94F102F7018783F8018481958123
:100C10000E94F102F7018087F801848195810E948A
:100C2000A8031F910F91FF90EF90DF90CF90089550
:100C30000F931F938A010E94B205C80168E00E94C9
:100C4000A80220E0F8019085891709F421E0822F9D
:100C50001F910F910895CF92DF92EF92FF920F9321
:100C60001F93DF93CF93CDB7DEB729970FB6F894D4
:100C7000DEBF0FBECDBF8C017B016E010894C11C8D
:100C8000D11CA6010E941806882329F460E070E0B8
:100C90008EEF92EC05C0C801B701A6010E9497042F
:100CA00029960FB6F894DEBF0FBECDBFCF91DF916E
:100CB0001F910F91FF90EF90DF90CF9008950F93C9
:100CC0001F938B01CB0167E00E94A80220E0F8018E
:100CD0009781891709F421E0822F1F910F910895C0
:100CE000EF92FF920F931F93CF93DF93EC017B0161
:100CF000042F8C819D810E949B0210E007C0CE01D1
:100D0000B7010E945F068823A9F00AC08C819D81EB
:100D1000B7010E94F303882329F0101759F4EFCF8D
:100D200081E001C080E0DF91CF911F910F91FF9092
:100D3000EF9008951F5F0117A8F3E8CFEF92FF929D
:100D40000F931F93DF93CF93CDB7DEB728970FB6DE
:100D5000F894DEBF0FBECDBF7C01462F8E010F5F22
:100D60001F4FB8010E947006C701B8010E942B06F0
:100D700028960FB6F894DEBF0FBECDBFCF91DF919E
:100D80001F910F91FF90EF9008950E949E0626E616
:100D900036E646EE5FE30E94800C20E030E040E063
:100DA00052E40E94CD0A08959F92AF92BF92CF92D3
:100DB000DF92EF92FF920F931F93DF93CF93CDB704
:100DC000DEB761970FB6F894DEBF0FBECDBF8C01C2
:100DD000FC01848195810E949B027E010894E11CA4
:100DE000F11CE9E0AE2EB12CAC0EBD1E7FE7C72E84
:100DF000D12C992493942DC0C801B7010E945F069D
:100E0000882339F1F8018081882341F4C801B701B2
:100E10000E948605882311F0F8019082C801B7016D
:100E2000A5010E94B2058981803121F4F801D282A6
:100E3000C1820BC08D85282F30E0F801818192811D
:100E40008217930714F432832183F80183818F5F23
:100E50008383F80184819581B7010E94F30388237D
:100E600059F661960FB6F894DEBF0FBECDBFCF9195
:100E7000DF911F910F91FF90EF90DF90CF90BF9087
:100E8000AF909F900895CF92EF920F931F938EE2B1
:100E900091E06CE04BE025E004E053E0E52E32E029
:100EA000C32E0E943B0201E411E0C80168E00E94E9
:100EB00070028FE491E0B8010E9489041F910F91A4
:100EC000EF90CF900895EF92FF920F931F936FE4EE
:100ED000E62E61E0F62EC7010E944F050EE211E0FA
:100EE000C8010E948101C80160E071E00E9476099A
:100EF000C70160E00E94C506AB01BC01C8010E94A9
:100F0000C80AC80160E041E00E945201C8016BE0DC
:100F100071E00E947609C70161E00E94C506AB013D
:100F2000BC01C8010E94C80A68EE73E080E090E04E
:100F30000E9407081F910F91FF90EF9008958EE295
:100F400091E064E144E020E00E9489018FE491E0B7
:100F50000E94D4068091180161E00E94D20860913D
:100F60001A0170911B01809118010E94790808955F
:100F70000E943F080E949F070E946307FDCF1F92B7
:100F80000F920FB60F9211242F933F938F939F933D
:100F9000AF93BF938091650190916601A091670125
:100FA000B0916801309169010196A11DB11D232FF7
:100FB0002D5F2D3720F02D570196A11DB11D2093D7
:100FC00069018093650190936601A0936701B093D6
:100FD00068018091610190916201A0916301B091DB
:100FE00064010196A11DB11D80936101909362017E
:100FF000A0936301B0936401BF91AF919F918F91D2
:101000003F912F910F900FBE0F901F901895EF9268
:10101000FF920F931F937B018C018FB7F89440913F
:1010200065015091660160916701709168018FBF01
:101030002FB7F8948091650190916601A0916701A6
:10104000B09168012FBF841B950BA60BB70BE81658
:10105000F9060A071B0760F71F910F91FF90EF90A9
:101060000895019759F0FC01EE0FFF1FEE0FFF1FCF
:1010700032978FB7F8943197F1F78FBF089578942E
:1010800084B5826084BD84B5816084BD85B582608D
:1010900085BD85B5816085BDEEE6F0E0808181602B
:1010A0008083E1E8F0E080818260808380818160DC
:1010B0008083E0E8F0E0808181608083E1EBF0E014
:1010C000808184608083E0EBF0E0808181608083B8
:1010D000EAE7F0E0808184608083808182608083A1
:1010E0008081816080838081806880831092C100CC
:1010F00008951F93CF93DF93182FEB0161E00E94B7
:10110000D208E12FF0E0E255FF4F8491833051F493
:1011100080918000806880938000D0938900C09384
:1011200088003CC0843051F48091800080628093BC
:101130008000D0938B00C0938A0030C0813039F496
:10114000209729F184B5806884BDC7BD27C082304F
:1011500039F42097E1F084B5806284BDC8BD1EC01B
:10116000863041F48091B00080688093B000C093D5
:10117000B30014C0873041F48091B0008062809346
:10118000B000C093B4000AC0C038D1051CF4812F50
:1011900060E002C0812F61E00E94F208DF91CF91F0
:1011A0001F910895282F30E0C90186569F4FFC01FA
:1011B00094912A573F4FF9018491882391F0E82FA9
:1011C000F0E0EE0FFF1FE859FF4FA591B4916623A1
:1011D00029F48C91909589238C9308958C91892B77
:1011E0008C930895482F50E0CA0182559F4FFC010F
:1011F0002491CA0186569F4FFC0194914A575F4F34
:10120000FA0134913323D1F1222331F1233021F437
:10121000809180008F7705C0243031F48091800068
:101220008F7D8093800018C0213019F484B58F77AA
:1012300004C0223021F484B58F7D84BD0DC02630DA
:1012400021F48091B0008F7705C0273029F4809178
:10125000B0008F7D8093B000E32FF0E0EE0FFF1F12
:10126000EE58FF4FA591B491662329F48C91909587
:1012700089238C9308958C91892B8C9308950F93D7
:101280001F93CF93DF938C01EB0109C02196D80106
:10129000ED91FC910190F081E02DC80109956881E4
:1012A0006623A1F7DF91CF911F910F910895EF92DF
:1012B000FF920F931F93CF93DF938C017B01EA0181
:1012C0000CC0D7016D917D01D801ED91FC91019089
:1012D000F081E02DC80109952197209791F7DF91C2
:1012E000CF911F910F91FF90EF900895DC01ED9148
:1012F000FC910280F381E02D099508952F923F9291
:101300004F925F926F927F928F929F92AF92BF9215
:10131000CF92DF92EF92FF920F931F93DF93CF93C1
:10132000CDB7DEB7A0970FB6F894DEBF0FBECDBF26
:101330001C016A017B01411551056105710549F4E4
:10134000DC01ED91FC910190F081E02D60E30995C5
:1013500054C0882499245401422E552466247724AD
:1013600001E010E00C0F1D1F080D191DC701B6018B
:10137000A30192010E94E30CF80160830894811C90
:10138000911CA11CB11CC701B601A30192010E94CE
:10139000E30CC901DA016C017D01C114D104E1043F
:1013A000F104F1F681E0E82EF12CEC0EFD1EE80CC4
:1013B000F91C3E010894611C711CD501C401019700
:1013C000A109B1096C01C818D90814C0F601EE0DC5
:1013D000FF1D60816A3010F4605D01C0695CD1015D
:1013E000ED91FC910190F081E02DC10109950894E7
:1013F000E108F1086E147F0449F7A0960FB6F8943F
:10140000DEBF0FBECDBFCF91DF911F910F91FF9037
:10141000EF90DF90CF90BF90AF909F908F907F9094
:101420006F905F904F903F902F9008952AE00E9418
:101430007E090895EF92FF920F931F93CF93DF934E
:10144000EC017A018B0177FF0FC0E881F9810190EF
:10145000F081E02D6DE2099510950095F094E094EF
:10146000E11CF11C011D111DCE01B801A7012AE0EC
:101470000E947E09DF91CF911F910F91FF90EF9015
:1014800008959F92AF92BF92CF92DF92EF92FF9218
:101490000F931F93CF93DF93EC017A018B01922E70
:1014A000CB01BA0120E030E040E050E00E94310B77
:1014B000882364F4E881F9810190F081E02DCE0168
:1014C0006DE2099517FB109517F9109520E030E0B3
:1014D00040E05FE3AA240BC0CA01B90120E030E07C
:1014E00040E251E40E94350B9B01AC01A394A91486
:1014F00098F3C801B7010E94CD0A5B016C010E94FC
:10150000A20B7B018C01CE01B801A7010E94160A33
:10151000992029F0CE0166E171E00E947609C801A8
:10152000B7010E94CE0B9B01AC01C601B5010E9420
:10153000CC0A20C020E030E040E251E40E94800C60
:101540007B018C010E949D0B5B016C01CC24B7FCDC
:10155000C094DC2CCE01B601A5010E941A0AC60176
:10156000B5010E94D00B9B01AC01C801B7010E94DC
:10157000CC0A9A949920F1F6DF91CF911F910F91A7
:10158000FF90EF90DF90CF90BF90AF909F90089525
:1015900022E00E94410A08955058BB27AA270ED086
:1015A00075C166D130F06BD120F031F49F3F11F45A
:1015B0001EF45BC10EF4E095E7FB51C1E92F77D132
:1015C00080F3BA17620773078407950718F071F460
:1015D0009EF58FC10EF4E0950B2EBA2FA02D0B01B6
:1015E000B90190010C01CA01A0011124FF27591B68
:1015F00099F0593F50F4503E68F11A16F040A22F6E
:10160000232F342F4427585FF3CF469537952795DE
:10161000A795F0405395C9F77EF41F16BA0B620BDD
:10162000730B840BBAF09150A1F0FF0FBB1F661F24
:10163000771F881FC2F70EC0BA0F621F731F841F67
:1016400048F4879577956795B795F7959E3F08F08D
:10165000B3CF9395880F08F09927EE0F979587954C
:101660000895D9D008F481E008950CD00FC107D1B6
:1016700040F0FED030F021F45F3F19F0F0C051117E
:1016800039C1F3C014D198F39923C9F35523B1F3A9
:10169000951B550BBB27AA2762177307840738F0E1
:1016A0009F5F5F4F220F331F441FAA1FA9F333D040
:1016B0000E2E3AF0E0E830D091505040E695001CF4
:1016C000CAF729D0FE2F27D0660F771F881FBB1FB0
:1016D000261737074807AB07B0E809F0BB0B802D8A
:1016E000BF01FF2793585F4F2AF09E3F510568F0D6
:1016F000B6C000C15F3FECF3983EDCF3869577956A
:101700006795B795F7959F5FC9F7880F911D9695D7
:10171000879597F90895E1E0660F771F881FBB1F33
:10172000621773078407BA0720F0621B730B840BE0
:10173000BA0BEE1F88F7E095089504D06894B111B4
:10174000D9C00895BCD088F09F5790F0B92F992741
:10175000B751A0F0D1F0660F771F881F991F1AF0BC
:10176000BA95C9F712C0B13081F0C3D0B1E0089585
:10177000C0C0672F782F8827B85F39F0B93FCCF306
:10178000869577956795B395D9F73EF490958095B2
:10179000709561957F4F8F4F9F4F0895E89409C0D2
:1017A00097FB3EF490958095709561957F4F8F4F94
:1017B0009F4F9923A9F0F92F96E9BB279395F695AA
:1017C000879577956795B795F111F8CFFAF4BB0F28
:1017D00011F460FF1BC06F5F7F4F8F4F9F4F16C08C
:1017E000882311F096E911C0772321F09EE8872F16
:1017F000762F05C0662371F096E8862F70E060E0D2
:101800002AF09A95660F771F881FDAF7880F96954A
:10181000879597F90895990F0008550FAA0BE0E8EE
:10182000FEEF16161706E807F907C0F012161306A2
:10183000E407F50798F0621B730B840B950B39F4E2
:101840000A2661F0232B242B252B21F408950A2648
:1018500009F4A140A6958FEF811D811D089597F988
:101860009F6780E870E060E008959FEF80EC089546
:1018700000240A941616170618060906089500246F
:101880000A9412161306140605060895092E0394E9
:10189000000C11F4882352F0BB0F40F4BF2B11F45D
:1018A00060FF04C06F5F7F4F8F4F9F4F089557FDBC
:1018B0009058440F551F59F05F3F71F04795880FBE
:1018C00097FB991F61F09F3F79F087950895121655
:1018D00013061406551FF2CF4695F1DF08C0161601
:1018E00017061806991FF1CF8695710561050894B2
:1018F0000895E894BB2766277727CB0197F90895C9
:101900000BD0C4CFB5DF28F0BADF18F0952309F06B
:10191000A6CFABCF1124EECFCADFA0F3959FD1F3B2
:10192000950F50E0551F629FF001729FBB27F00D8D
:10193000B11D639FAA27F00DB11DAA1F649F6627E2
:10194000B00DA11D661F829F2227B00DA11D621F31
:10195000739FB00DA11D621F839FA00D611D221FEB
:10196000749F3327A00D611D231F849F600D211DCF
:10197000822F762F6A2F11249F5750408AF0E1F072
:1019800088234AF0EE0FFF1FBB1F661F771F881FBB
:1019900091505040A9F79E3F510570F060CFAACFFB
:1019A0005F3FECF3983EDCF3869577956795B795A6
:1019B000F795E7959F5FC1F7FE2B880F911D9695D0
:1019C000879597F90895A1E21A2EAA1BBB1BFD016A
:1019D0000DC0AA1FBB1FEE1FFF1FA217B307E4070E
:1019E000F50720F0A21BB30BE40BF50B661F771F66
:1019F000881F991F1A9469F7609570958095909546
:101A00009B01AC01BD01CF010895EE0FFF1F0590B2
:0A1A1000F491E02D0994F894FFCF43
:101A1A0054656D70202830293A200054656D702075
:101A2A002831293A20002E000A00FF000000000099
:0E1A3A0040013F09570900004000140054000D
:00000001FF
